:100000000C9462000C949E050C94CB050C948A0011
:100010000C948A000C948A000C948A000C948A0038
:100020000C948A000C948A000C948A000C94BD04F1
:100030000C948A000C948A000C948A000C948A0018
:100040000C94F8050C948A000C948A000C948A0095
:100050000C948A000C948A000C948A000C948A00F8
:100060000C948A000C948A000000000024002700F1
:100070002A0000000000250028002B0000000000DE
:1000800023002600290004040404040404040202DA
:100090000202020203030303030301020408102007
:1000A0004080010204081020010204081020000012
:1000B0000007000201000003040600000000000029
:1000C00000008C0011241FBECFEFD8E0DEBFCDBFF3
:1000D00011E0A0E0B1E0EEE6F1E102C005900D9282
:1000E000A039B107D9F711E0A0E9B1E001C01D9234
:1000F000A63EB107E1F710E0C4ECD0E004C02297BF
:10010000FE010E94B108C23CD107C9F70E94C8078E
:100110000C94B5080C94000080E991E068E070E070
:1001200049E050E02AE030E00E94580388EA91E07C
:100130000E94790308958091620160E00E94210786
:100140008091640160E00E9421078091660160E077
:100150000E94210780917A0161E00E9421070895A1
:100160000F931F93CF93DF9302E611E0C0E0D0E03E
:100170008091AD019091AE01C817D90721F4F80123
:10018000808161E003C0F801808160E00E94210766
:1001900021960E5F1F4FC330D10551F7DF91CF91EC
:1001A0001F910F9108950F931F93CF93DF93C8EE84
:1001B000D3E00E9440068B019C018091AF01909199
:1001C000B001A091B101B091B201081B190B2A0B2B
:1001D0003B0B809168019091690164E070E00E949E
:1001E0004B086C9FC0016D9F900D7C9F900D11245A
:1001F000AA2797FDA095BA2F081719072A073B07CA
:10020000C0F2DF91CF911F910F9108950F931F932B
:1002100008EA11E080916A0190916B0164E070E05E
:100220000E944B086F597F4FC8010E94CF0360E9BD
:1002300071E080E090E00E944E06C8016DE570E03C
:100240000E94CF031F910F910895CF93DF93809168
:100250006C0190916D0164E070E00E944B08EB012D
:1002600017C00E9440066093AF017093B001809365
:10027000B1019093B20180E991E0BE010E94C602F3
:100280000E940601C130D10511F00E94D3002197D0
:100290001C161D0634F3DF91CF910895E091AD0156
:1002A000F091AE01EE0FFF1FE859FE4F8081918162
:1002B00064E070E00E944B0880E991E00E94C60271
:1002C0000E94B00008950F931F9380915A010E94DD
:1002D00075078C0180915C010E947507A801440F8D
:1002E000551F482B592B2091AB013091AC01220FA7
:1002F000331F220F331F242B352B2D30310549F0AE
:100300002430310531F02230310519F02B30310520
:10031000D1F4E091AD01F091AE01EE0FFF1FDF01CE
:10032000A859BE4F8D919C911197019611969C935F
:100330008E93EC58FE4F0190F081E02DE817F907FD
:1003400014F4ED93FC932E30310549F0273031053C
:1003500031F02130310519F028303105D1F4E09128
:10036000AD01F091AE01EE0FFF1FDF01A859BE4FA6
:100370008D919C911197019711969C938E93E259C0
:10038000FE4F0190F081E02D8E179F0714F4ED933E
:10039000FC935093AC014093AB011F910F910895D2
:1003A000809160010E9475070197E1F40E949B0013
:1003B0000E94250180917A0160E00E94210780E976
:1003C00091E060E070E00E94C602809160010E94AE
:1003D00075070197D1F364EF71E080E090E00E942F
:1003E0004E0608950E944E0180915E010E9475079D
:1003F000892BA9F48091AD019091AE01019663E043
:1004000070E00E944B089093AE018093AD010E9472
:100410004E016AEF70E080E090E00E944E06089581
:10042000CF92DF92EF92FF920F931F93CF93DF93C0
:1004300080E991E00E94360388EA91E065E070E08F
:100440000E94B60480915A0160E00E94E206809109
:100450005C0160E00E94E20680915E0160E00E9423
:10046000E2068091600160E00E94E20680915A01FC
:1004700061E00E94210780915C0161E00E942107F8
:10048000C8E6D1E04EE6C42E41E0D42E34E7E32E98
:1004900031E0F32E02E611E088819981880F991FDF
:1004A000880F991F89939993F60180819181880F14
:1004B000991F880F991F819391936F01F701808194
:1004C0009181880F991F880F991F819391937F01C4
:1004D000F801808161E00E94E2060E5F1F4FF1E0AB
:1004E000CE36DF07C9F680917A0161E00E94E2060C
:1004F00080E063E671E041E050E00E947B0581E02E
:1005000063E671E041E050E00E947B05DF91CF910E
:100510001F910F91FF90EF90DF90CF900895EF9291
:10052000FF920F931F93CF93DF938C01FC01808187
:1005300060E00E942107F801C681D78127967801E3
:10054000EC0EFD1E279713C0F801828160E00E9427
:100550002107F7016081F80184810E942107F801D9
:10056000828161E00E9421070894E108F108219747
:10057000D7FFEACFF801808161E00E942107DF9177
:10058000CF911F910F91FF90EF900895CF92DF923E
:10059000EF92FF920F931F93DF93CF93CDB7DEB708
:1005A00064970FB6F894DEBF0FBECDBFD82EC92E0C
:1005B0008B01DE011196ECE7F1E084E101900D92F0
:1005C0008150E1F7C80164E670E00E944B086AE0E0
:1005D00070E00E944B08FB01EE0FFF1F9E012F5F92
:1005E0003F4FE20FF31FE080F180C8016AE070E046
:1005F0000E944B08880F991F280F391FF90140816D
:1006000051812D2D3C2DC901DC0120E030E090E02E
:10061000F701E20FF31F8081813309F491E018960E
:100620009C93189790E0FA01E20FF31F80818133C9
:1006300009F491E050969C9350972F5F3F4F11968D
:100640002830310521F78D2D9C2D0E948F02649654
:100650000FB6F894DEBF0FBECDBFCF91DF911F91D3
:100660000F91FF90EF90DF90CF900895CF93DF939D
:10067000EC018C8161E00E94E206888161E00E94C9
:10068000E2068A8161E00E94E2068E819F810796E0
:10069000FE01E80FF91F079702C0108231970197FA
:1006A00097FFFBCFCE010E948F02DF91CF9108957B
:1006B000DF93CF93CDB7DEB7FC01ADB7BEB775837F
:1006C0006483338322835183408380E190E0978366
:1006D00086838DB79EB740970FB6F8949EBF0FBE26
:1006E0008DBF0FB6F894BEBF0FBEADBFCF91DF91E7
:1006F0000895FC018091B3018C3090F480838F5F6A
:100700008093B301815090E0FC01EE0FFF1FE80FD2
:10071000F91FEC54FE4F88EB9BE092838183089590
:100720008FEF80830895FC0120812C30B8F5818102
:10073000992787FD909548E850E0481B590B440FD6
:10074000551F440F551F6417750784F08281992740
:1007500087FD909548E552E0481B590B440F551F03
:10076000440F551F641775070CF4AB0142505040FD
:10077000CA01AA2797FDA095BA2F880F991FAA1F13
:10078000BB1F4FB7F89430E0F901EE0FFF1FE20FE7
:10079000F31FEC54FE4F928381834FBF0895AF92B5
:1007A000BF92CF92DF92EF92FF920F931F93CF935E
:1007B000DF93EC019B0182E0603278070CF048C0C7
:1007C00077FF03C020E030E005C0653B710514F001
:1007D00024EB30E000D000D0B901882777FD809568
:1007E000982F2981332727FD3095E8E8AE2EB12CCC
:1007F000A21AB30AAA0CBB1CAA0CBB1CCC24B7FCC3
:10080000C094DC2CEA81FF27E7FDF09528E532E073
:100810002E1B3F0B220F331F220F331F442737FDA0
:100820004095542FEDB7FEB7218332834383548321
:1008300020E030E040E050E004EBE02EF12C012D10
:10084000112D0E94D7079B010F900F900F900F90D2
:10085000CE01B9010E949303DF91CF911F910F91B7
:10086000FF90EF90DF90CF90BF90AF900895CF9220
:10087000DF92EF92FF921F93CF93DF93EC01162F3D
:100880007A01690188818C3008F064C0862F61E0AC
:100890000E94E206888190E0FC01EE0FFF1FE80F46
:1008A000F91FEC54FE4F1F738081807C812B808365
:1008B00080E292E08E199F0964E070E00E944B088C
:1008C000698380E699E08C199D0964E070E00E94DC
:1008D0004B086A83A8818A2F6CE00E943F08682F2A
:1008E00070E0AB01440F551F460F571F440F551FB3
:1008F000440F551F20E030E0C901840F951FFC0113
:10090000EE0FFF1FE80FF91FEC54FE4F808186FDAC
:1009100015C02F5F3F4F2C30310571F724C0109266
:10092000800082E080938100109285001092840004
:10093000B19A80916F00826080936F008A2F90E05F
:10094000FC01EE0FFF1FE80FF91FEC54FE4F8081F2
:10095000806480838881DF91CF911F91FF90EF9019
:10096000DF90CF900895672BD1F2E8CF40E252E0BC
:1009700020E639E00E94370408951F920F920FB6C7
:100980000F9211242F933F934F935F936F937F9315
:100990008F939F93AF93BF93EF93FF938091D80171
:1009A00087FF05C010928500109284002BC0209113
:1009B000D801332727FD30958091B30190E02817A7
:1009C000390704F58091D801992787FD9095FC019E
:1009D000EE0FFF1FE80FF91FEC54FE4F808186FFDA
:1009E00011C08091D801992787FD9095FC01EE0FE9
:1009F000FF1FE80FF91FEC54FE4F80818F7360E0FA
:100A00000E9421078091D8018F5F8093D8012091A7
:100A1000D801332727FD30958091B30190E0281746
:100A200039070CF04EC08091D8018C300CF049C0D1
:100A300020918400309185008091D801992787FD0D
:100A40009095FC01EE0FFF1FE80FF91FEC54FE4FCD
:100A500081819281280F391F30938900209388006B
:100A60008091D801992787FD9095FC01EE0FFF1F1B
:100A7000E80FF91FEC54FE4F808186FF2BC0809158
:100A8000D801992787FD9095FC01EE0FFF1FE80F15
:100A9000F91FEC54FE4F80818F7361E00E942107A3
:100AA00019C080E49CE905C0809184009091850084
:100AB000049690938900809388008FEF8093D801EB
:100AC00009C08091840090918500049680549C49CF
:100AD00040F3EACFFF91EF91BF91AF919F918F913A
:100AE0007F916F915F914F913F912F910F900FBE2A
:100AF0000F901F901895823000F5E82FF0E0EE0F70
:100B0000FF1FE752FE4F71836083882319F0813005
:100B1000A1F408C0809169008C7F842B80936900C8
:100B2000E89A089580916900440F551F440F551F9E
:100B3000837F842B80936900E99A08951F920F9216
:100B40000FB60F9211242F933F934F935F936F93A0
:100B50007F938F939F93AF93BF93EF93FF93809176
:100B6000D9019091DA01892B29F0E091D901F09116
:100B7000DA010995FF91EF91BF91AF919F918F910C
:100B80007F916F915F914F913F912F910F900FBE89
:100B90000F901F9018951F920F920FB60F9211246D
:100BA0002F933F934F935F936F937F938F939F9375
:100BB000AF93BF93EF93FF938091DB019091DC01A2
:100BC000892B29F0E091DB01F091DC010995FF917F
:100BD000EF91BF91AF919F918F917F916F915F91B5
:100BE0004F913F912F910F900FBE0F901F9018952E
:100BF0001F920F920FB60F9211242F933F938F9352
:100C00009F93AF93BF938091E1019091E201A091F6
:100C1000E301B091E4013091E5010196A11DB11D00
:100C2000232F2D5F2D3720F02D570196A11DB11DCB
:100C30002093E5018093E1019093E201A093E30109
:100C4000B093E4018091DD019091DE01A091DF017C
:100C5000B091E0010196A11DB11D8093DD0190933B
:100C6000DE01A093DF01B093E001BF91AF919F91AE
:100C70008F913F912F910F900FBE0F901F9018955D
:100C80008FB7F8942091E1013091E2014091E301A6
:100C90005091E4018FBFB901CA0108959B01AC01D5
:100CA0007FB7F8948091DD019091DE01A091DF0182
:100CB000B091E00166B5A89B05C06F3F19F00196A1
:100CC000A11DB11D7FBFBA2FA92F982F8827860F8E
:100CD000911DA11DB11D62E0880F991FAA1FBB1FA6
:100CE0006A95D1F7BC012DC0FFB7F8948091DD0162
:100CF0009091DE01A091DF01B091E001E6B5A89BE3
:100D000005C0EF3F19F00196A11DB11DFFBFBA2F1D
:100D1000A92F982F88278E0F911DA11DB11DE2E0EC
:100D2000880F991FAA1FBB1FEA95D1F7861B970B47
:100D3000885E9340C8F22150304040405040685196
:100D40007C4F211531054105510571F608957894C0
:100D500084B5826084BD84B5816084BD85B58260C0
:100D600085BD85B5816085BDEEE6F0E0808181605E
:100D70008083E1E8F0E0108280818260808380815E
:100D800081608083E0E8F0E0808181608083E1EB36
:100D9000F0E0808184608083E0EBF0E0808181601E
:100DA0008083EAE7F0E080818460808380818260D4
:100DB00080838081816080838081806880831092BD
:100DC000C1000895CF93DF93482F50E0CA018656A3
:100DD0009F4FFC0134914A575F4FFA018491882359
:100DE00069F190E0880F991FFC01E859FF4FA59128
:100DF000B491FC01EE58FF4FC591D491662351F494
:100E00002FB7F8948C91932F909589238C93888198
:100E100089230BC0623061F42FB7F8948C91932F23
:100E2000909589238C938881832B88832FBF06C05C
:100E30009FB7F8948C91832B8C939FBFDF91CF91B8
:100E40000895482F50E0CA0182559F4FFC0124911C
:100E5000CA0186569F4FFC0194914A575F4FFA0191
:100E60003491332309F440C0222351F1233071F02F
:100E7000243028F42130A1F0223011F514C026309E
:100E8000B1F02730C1F02430D9F404C08091800043
:100E90008F7703C0809180008F7D8093800010C089
:100EA00084B58F7702C084B58F7D84BD09C08091E1
:100EB000B0008F7703C08091B0008F7D8093B00029
:100EC000E32FF0E0EE0FFF1FEE58FF4FA591B49116
:100ED0002FB7F894662321F48C919095892302C052
:100EE0008C91892B8C932FBF0895682F70E0CB01D4
:100EF00082559F4FFC012491CB0186569F4FFC01E8
:100F000044916A577F4FFB019491992319F420E093
:100F100030E03CC0222351F1233071F0243028F41A
:100F20002130A1F0223011F514C02630B1F0273065
:100F3000C1F02430D9F404C0809180008F7703C0C1
:100F4000809180008F7D8093800010C084B58F7762
:100F500002C084B58F7D84BD09C08091B0008F77B9
:100F600003C08091B0008F7D8093B000892F90E006
:100F7000880F991F84589F4FFC01A591B4918C91C3
:100F800020E030E0842311F021E030E0C901089531
:100F9000CF93DF930E94A7060E941002C0E0D0E02A
:100FA0000E94D0012097E1F30E940000F9CF2F9218
:100FB0003F924F925F926F927F928F929F92AF92E9
:100FC000BF92CF92DF92EF92FF920F931F93DF9326
:100FD000CF93CDB7DEB73B014C0119012A016D89D2
:100FE0007E898F89988D6A197B098C099D09621AFF
:100FF000730A840A950AA40193010E942008E2184A
:10100000F30804091509A80197010E945E082A0D3A
:101010003B1D4C1D5D1DB901CA01CF91DF911F9190
:101020000F91FF90EF90DF90CF90BF90AF909F9087
:101030008F907F906F905F904F903F902F9008958A
:10104000629FD001739FF001829FE00DF11D649FAC
:10105000E00DF11D929FF00D839FF00D749FF00D38
:10106000659FF00D9927729FB00DE11DF91F639FD9
:10107000B00DE11DF91FBD01CF0111240895991B89
:1010800079E004C0991F961708F0961B881F7A957F
:10109000C9F78095089597FB092E07260AD077FD9A
:1010A00004D027D006D000201AF4709561957F4FA8
:1010B0000895F6F7909581959F4F089597FB092E17
:1010C00005260ED057FD04D028D00AD0001C38F4D5
:1010D00050954095309521953F4F4F4F5F4F089564
:1010E000F6F790958095709561957F4F8F4F9F4F44
:1010F0000895AA1BBB1B51E107C0AA1FBB1FA6175F
:10110000B70710F0A61BB70B881F991F5A95A9F7B0
:1011100080959095BC01CD010895A1E21A2EAA1BDD
:10112000BB1BFD010DC0AA1FBB1FEE1FFF1FA21797
:10113000B307E407F50720F0A21BB30BE40BF50B94
:10114000661F771F881F991F1A9469F7609570951D
:10115000809590959B01AC01BD01CF010895EE0FE4
:0E116000FF1F0590F491E02D0994F894FFCF45
:10116E003131313131313030003031313030303099
:10117E0030003131303131303130003131313130B8
:10118E0030313000303131303031313000313031AA
:10119E003130313130003130313131313130003197
:1011AE003131303030303000313131313131313058
:1011BE000031313130303131300002000300060091
:1011CE0007000C000B0004000100010000000100EC
:1011DE000100010063000A0063000D000001090117
:1011EE0012011B0124012D0136013F01480151015D
:00000001FF
