:100000000C9463000C94E4020C9411030C948B0088
:100010000C948B000C948B000C948B000C948B0034
:100020000C948B000C948B000C948B000C948B0024
:100030000C948B000C948B000C948B000C948B0014
:100040000C943E030C948B000C9401050C944F050A
:100050000C948B000C948B000C948B000C948B00F4
:100060000C948B000C948B000000000024002700EF
:100070002A0000000000250028002B0000000000DE
:1000800023002600290004040404040404040202DA
:100090000202020203030303030301020408102007
:1000A0004080010204081020010204081020000012
:1000B0000007000201000003040600000000000029
:1000C00000008D00BB0611241FBECFEFD8E0DEBFBD
:1000D000CDBF11E0A0E0B1E0E6E3FFE002C0059093
:1000E0000D92AE39B107D9F712E0AEE9B1E001C027
:1000F0001D92A137B107E1F710E0C6ECD0E004C0D3
:100100002297FE010E949507C23CD107C9F70E94C1
:1001100011070C9499070C9400008EE991E068E0B7
:1001200070E049E050E02AE030E00E94A00208952B
:100130000F931F93CF93DF9302E611E0C0E0D0E06E
:100140008091B8019091B901C817D90721F4F8013D
:10015000808161E003C0F801808160E00E94590461
:1001600021960E5F1F4FC330D10551F7DF91CF911C
:100170001F910F910895E091B801F091B901EE0F30
:10018000FF1FE859FE4F8081918164E070E00E947A
:100190004A078EE991E00E940E020E94980008959D
:1001A0000F931F9380915A010E94AD048C0180919E
:1001B0005C010E94AD04A801440F551F482B592B28
:1001C0002091B6013091B701220F331F220F331F48
:1001D000242B352B2D30310549F02430310531F0F9
:1001E0002230310519F02B303105D1F4E091B801FE
:1001F000F091B901EE0FFF1FDF01A859BE4F8D919D
:100200009C911197019611969C938E93EC58FE4FFA
:100210000190F081E02DE817F90714F4ED93FC93B9
:100220002E30310549F02730310531F021303105CC
:1002300019F028303105D1F4E091B801F091B901FD
:10024000EE0FFF1FDF01A859BE4F8D919C911197B2
:10025000019711969C938E93E259FE4F0190F08185
:10026000E02D8E179F0714F4ED93FC935093B70184
:100270004093B6011F910F9108950E94BB00809199
:100280005E010E94AD04892BA9F48091B801909180
:10029000B901019663E070E00E944A079093B901AA
:1002A0008093B8010E94BB006AEF70E080E090E0AC
:1002B0000E9486030895CF92DF92EF92FF920F93F0
:1002C0001F93CF93DF938FE492E040E855E260E024
:1002D00070E00E948A058EE991E00E947E02809182
:1002E0005A0160E00E941A0480915C0160E00E9463
:1002F0001A0480915E0160E00E941A0480916001FE
:1003000060E00E941A0480915A0161E00E94590441
:1003100080915C0161E00E945904C8E6D1E04EE69C
:10032000C42E41E0D42E34E7E32E31E0F32E02E672
:1003300011E088819981880F991F880F991F8993EF
:100340009993F60180819181880F991F880F991FD9
:10035000819391936F01F70180819181880F991F9B
:10036000880F991F819391937F01F801808161E04B
:100370000E941A040E5F1F4FF1E0CE36DF07C9F668
:1003800080E060ED70E041E050E00E94C10281E059
:1003900060ED70E041E050E00E94C102DF91CF913A
:1003A0001F910F91FF90EF90DF90CF900895EF9203
:1003B000FF920F931F93CF93DF938C01FC018081F9
:1003C00060E00E945904F801C681D7812796780120
:1003D000EC0EFD1E279713C0F801828160E00E9499
:1003E0005904F7016081F80184810E945904F801E1
:1003F000828161E00E9459040894E108F108219784
:10040000D7FFEACFF801808161E00E945904DF91B3
:10041000CF911F910F91FF90EF900895CF92DF92AF
:10042000EF92FF920F931F93DF93CF93CDB7DEB779
:1004300064970FB6F894DEBF0FBECDBFD82EC92E7D
:100440008B01DE011196EAE7F1E084E101900D9263
:100450008150E1F7C80164E670E00E944A076AE053
:1004600070E00E944A07FB01EE0FFF1F9E012F5F05
:100470003F4FE20FF31FE080F180C8016AE070E0B7
:100480000E944A07880F991F280F391FF9014081E0
:1004900051812D2D3C2DC901DC0120E030E090E0A0
:1004A000F701E20FF31F8081813309F491E0189680
:1004B0009C93189790E0FA01E20FF31F808181333B
:1004C00009F491E050969C9350972F5F3F4F1196FF
:1004D0002830310521F78D2D9C2D0E94D70164967F
:1004E0000FB6F894DEBF0FBECDBFCF91DF911F9145
:1004F0000F91FF90EF90DF90CF900895CF93DF930F
:10050000EC018C8161E00E941A04888161E00E9404
:100510001A048A8161E00E941A048E819F810796E5
:10052000FE01E80FF91F079702C01082319701976B
:1005300097FFFBCFCE010E94D701DF91CF910895A5
:10054000DF93CF93CDB7DEB7FC01ADB7BEB77583F0
:100550006483338322835183408380E190E09783D7
:1005600086838DB79EB740970FB6F8949EBF0FBE97
:100570008DBF0FB6F894BEBF0FBEADBFCF91DF9158
:100580000895823000F5E82FF0E0EE0FFF1FE654EB
:10059000FE4F71836083882319F08130A1F408C075
:1005A000809169008C7F842B80936900E89A08957C
:1005B00080916900440F551F440F551F837F842B82
:1005C00080936900E99A08951F920F920FB60F92D7
:1005D00011242F933F934F935F936F937F938F9348
:1005E0009F93AF93BF93EF93FF938091BA01909144
:1005F000BB01892B29F0E091BA01F091BB0109956B
:10060000FF91EF91BF91AF919F918F917F916F91EA
:100610005F914F913F912F910F900FBE0F901F90C0
:1006200018951F920F920FB60F9211242F933F939C
:100630004F935F936F937F938F939F93AF93BF93EA
:10064000EF93FF938091BC019091BD01892B29F01C
:10065000E091BC01F091BD010995FF91EF91BF912F
:10066000AF919F918F917F916F915F914F913F914A
:100670002F910F900FBE0F901F9018951F920F9201
:100680000FB60F9211242F933F938F939F93AF93A5
:10069000BF938091C2019091C301A091C401B09118
:1006A000C5013091C6010196A11DB11D232F2D5FFB
:1006B0002D3720F02D570196A11DB11D2093C601A5
:1006C0008093C2019093C301A093C401B093C5016C
:1006D0008091BE019091BF01A091C001B091C10174
:1006E0000196A11DB11D8093BE019093BF01A093FF
:1006F000C001B093C101BF91AF919F918F913F9184
:100700002F910F900FBE0F901F9018959B01AC0179
:100710007FB7F8948091BE019091BF01A091C00174
:10072000B091C10166B5A89B05C06F3F19F0019655
:10073000A11DB11D7FBFBA2FA92F982F8827860F23
:10074000911DA11DB11D62E0880F991FAA1FBB1F3B
:100750006A95D1F7BC012DC0FFB7F8948091BE0116
:100760009091BF01A091C001B091C101E6B5A89BD5
:1007700005C0EF3F19F00196A11DB11DFFBFBA2FB3
:10078000A92F982F88278E0F911DA11DB11DE2E082
:10079000880F991FAA1FBB1FEA95D1F7861B970BDD
:1007A000885E9340C8F2215030404040504068512C
:1007B0007C4F211531054105510571F60895789456
:1007C00084B5826084BD84B5816084BD85B5826056
:1007D00085BD85B5816085BDEEE6F0E080818160F4
:1007E0008083E1E8F0E010828081826080838081F4
:1007F00081608083E0E8F0E0808181608083E1EBCC
:10080000F0E0808184608083E0EBF0E080818160B3
:100810008083EAE7F0E08081846080838081826069
:100820008083808181608083808180688083109252
:10083000C1000895CF93DF93482F50E0CA01865638
:100840009F4FFC0134914A575F4FFA0184918823EE
:1008500069F190E0880F991FFC01E859FF4FA591BD
:10086000B491FC01EE58FF4FC591D491662351F429
:100870002FB7F8948C91932F909589238C9388812E
:1008800089230BC0623061F42FB7F8948C91932FB9
:10089000909589238C938881832B88832FBF06C0F2
:1008A0009FB7F8948C91832B8C939FBFDF91CF914E
:1008B0000895482F50E0CA0182559F4FFC012491B2
:1008C000CA0186569F4FFC0194914A575F4FFA0127
:1008D0003491332309F440C0222351F1233071F0C5
:1008E000243028F42130A1F0223011F514C0263034
:1008F000B1F02730C1F02430D9F404C080918000D9
:100900008F7703C0809180008F7D8093800010C01E
:1009100084B58F7702C084B58F7D84BD09C0809176
:10092000B0008F7703C08091B0008F7D8093B000BE
:10093000E32FF0E0EE0FFF1FEE58FF4FA591B491AB
:100940002FB7F894662321F48C919095892302C0E7
:100950008C91892B8C932FBF0895682F70E0CB0169
:1009600082559F4FFC012491CB0186569F4FFC017D
:1009700044916A577F4FFB019491992319F420E029
:1009800030E03CC0222351F1233071F0243028F4B0
:100990002130A1F0223011F514C02630B1F02730FB
:1009A000C1F02430D9F404C0809180008F7703C057
:1009B000809180008F7D8093800010C084B58F77F8
:1009C00002C084B58F7D84BD09C08091B0008F774F
:1009D00003C08091B0008F7D8093B000892F90E09C
:1009E000880F991F84589F4FFC01A591B4918C9159
:1009F00020E030E0842311F021E030E0C9010895C7
:100A000008951F920F920FB60F9211242F933F93C8
:100A10004F938F939F93EF93FF938091C00082FD3C
:100A20001DC04091C60020910702309108022F5F3F
:100A30003F4F2F7330708091090290910A0228175E
:100A4000390771F0E0910702F0910802E953FE4F77
:100A50004083309308022093070202C08091C600B1
:100A6000FF91EF919F918F914F913F912F910F9017
:100A70000FBE0F901F901895E0915B02F0915C0201
:100A8000E05CFF4F8191919120813181821B930B1A
:100A90008F739070892B11F00E94000508951F92AA
:100AA0000F920FB60F9211242F933F938F939F9322
:100AB000EF93FF9320914B0230914C0280914D02B5
:100AC00090914E022817390731F48091C1008F7D33
:100AD0008093C10014C0E0914D02F0914E02E55F99
:100AE000FD4F208180914D0290914E0201968F73AF
:100AF000907090934E0280934D022093C600FF9118
:100B0000EF919F918F913F912F910F900FBE0F907A
:100B10001F901895AF92BF92DF92EF92FF920F93C2
:100B20001F93CF93DF93EC017A018B01DD244030DA
:100B300081EE580780E0680780E0780711F0DD2437
:100B4000D39491E0A92EB12CEC89FD89DD2069F0C8
:100B5000C50108A002C0880F991F0A94E2F780839C
:100B600060E079E08DE390E005C0108260E874E811
:100B70008EE190E0A80197010E945D07215030406E
:100B800040405040569547953795279580E1203055
:100B9000380720F0DD2011F0DD24D6CFE889F9896F
:100BA0003083EA89FB89208319A2EE89FF8940817D
:100BB00021E030E0C9010C8C02C0880F991F0A9413
:100BC000E2F7482B4083EE89FF894081C9010D8CF3
:100BD00002C0880F991F0A94E2F7482B4083EE89E0
:100BE000FF894081C9010E8C02C0880F991F0A94A9
:100BF000E2F7482B4083EE89FF8980810F8C02C089
:100C0000220F331F0A94E2F7209528232083DF91D7
:100C1000CF911F910F91FF90EF90DF90BF90AF9019
:100C20000895DC011C96ED91FC911D97E05CFF4F4F
:100C30002191319180819181281B390B2F73307064
:100C4000C9010895DC011C96ED91FC911D97E05CB3
:100C5000FF4F20813181E054F040DF01AE5BBF4F98
:100C60008D919C9111972817390719F42FEF3FEFB9
:100C700007C08D919C91E80FF91F8081282F30E0EB
:100C8000C9010895DC011C96ED91FC911D97E05C73
:100C9000FF4F20813181E054F040DF01AE5BBF4F58
:100CA0008D919C9111972817390719F42FEF3FEF79
:100CB00010C08D919C911197E80FF91F20818D91A3
:100CC0009C91119701968F73907011969C938E93BF
:100CD00030E0C9010895DC0191968C9191978823A9
:100CE00039F05496ED91FC915597808186FFF9CFAC
:100CF00091961C920895CF93DF93EC01EE85FF85CA
:100D0000E05CFF4F20813181E054F0402F5F3F4F86
:100D10002F733070DF01AE5BBF4F8D919C911197A7
:100D200028173907D1F3E05CFF4F80819181E054AF
:100D3000F040E80FF91F6083EE85FF85E05CFF4F10
:100D400031832083EE89FF89208181E090E00F8C40
:100D500002C0880F991F0A94E2F7282B208381E0B4
:100D600089A3EC89FD8980818064808381E090E0A3
:100D7000DF91CF910895109252021092510288EEA5
:100D800093E0A0E0B0E08093530290935402A093CC
:100D90005502B093560282E991E0909350028093FD
:100DA0004F0287EC91E090935C0280935B028BE0B2
:100DB00092E090935E0280935D0285EC90E09093C8
:100DC000600280935F0284EC90E0909362028093D3
:100DD000610280EC90E0909364028093630281EC66
:100DE00090E0909366028093650282EC90E090938D
:100DF00068028093670286EC90E090936A02809389
:100E0000690284E080936B0283E080936C0287E048
:100E100080936D0285E080936E0281E080936F0283
:100E20000895CF93DF930E94DF030E945B01CCE320
:100E3000D5E00E943D012097E1F30E943C05F9CFE7
:100E4000CF92DF92EF92FF920F931F93CF93DF9396
:100E50007C016B018A01C0E0D0E00FC0D6016D912A
:100E60006D01D701ED91FC910190F081E02DC7015A
:100E70000995C80FD91F015010400115110571F7D0
:100E8000CE01DF91CF911F910F91FF90EF90DF90F6
:100E9000CF90089597FB092E07260AD077FD04D03E
:100EA0002ED006D000201AF4709561957F4F0895DA
:100EB000F6F7909581959F4F0895A1E21A2EAA1BEF
:100EC000BB1BFD010DC0AA1FBB1FEE1FFF1FA217FA
:100ED000B307E407F50720F0A21BB30BE40BF50BF7
:100EE000661F771F881F991F1A9469F76095709580
:100EF000809590959B01AC01BD01CF010895AA1B7F
:100F0000BB1B51E107C0AA1FBB1FA617B70710F0F4
:100F1000A61BB70B881F991F5A95A9F78095909526
:100F2000BC01CD010895EE0FFF1F0590F491E02D57
:060F30000994F894FFCFC4
:100F360031313131313130300030313130303030D3
:100F460030003131303131303130003131313130F2
:100F560030313000303131303031313000313031E4
:100F660031303131300031303131313131300031D1
:100F76003131303030303000313131313131313092
:100F860000313131303031313000020003000700CA
:100F96000C00040005000600010002000300010029
:100FA600020003003200460063000001090112013D
:100FB6001B0124012D0136013F01480151010000AA
:0E0FC60000007B0620071106420622066B067D
:00000001FF
