:100000000C9463000C94BA050C94E7050C948B00D7
:100010000C948B000C948B000C948B000C948B0034
:100020000C948B000C948B000C948B000C94D904D2
:100030000C948B000C948B000C948B000C948B0014
:100040000C9414060C948B000C94E5070C94330864
:100050000C948B000C948B000C948B000C948B00F4
:100060000C948B000C948B000000000024002700EF
:100070002A0000000000250028002B0000000000DE
:1000800023002600290004040404040404040202DA
:100090000202020203030303030301020408102007
:1000A0004080010204081020010204081020000012
:1000B0000007000201000003040600000000000029
:1000C00000008D009F0911241FBECFEFD8E0DEBFD6
:1000D000CDBF11E0A0E0B1E0E6E4F8E102C0059098
:1000E0000D92A63CB107D9F712E0A6ECB1E001C031
:1000F0001D92A63CB107E1F710E0C6ECD0E004C0C9
:100100002297FE010E941D0CC23CD107C9F70E9434
:10011000F5090C94210C0C94000086EC91E068E049
:1001200070E049E050E02AE030E00E9474038EED78
:1001300091E00E94950308950F931F93CF93DF934F
:1001400084EA92E060E071E00E942D0B80918F01C3
:100150009091900164E070E00E94B70B84EA92E015
:100160004AE050E00E940E0BC8EED3E00E945C060D
:100170008B019C018091E5019091E601A091E7013E
:10018000B091E801081B190B2A0B3B0B80918F01E2
:100190009091900164E070E00E94B70B6C9FC001E9
:1001A0006D9F900D7C9F900D1124AA2797FDA0951F
:1001B000BA2F081719072A073B07C0F2DF91CF9122
:1001C0001F910F9108950F931F930EED11E0C80139
:1001D00064E670E00E94EB0360E971E080E090E08B
:1001E0000E946A06C8016DE570E00E94EB031F9152
:1001F0000F910895EF92FF920F931F93CF93DF9388
:10020000809193019091940164E070E00E94B70B9B
:10021000EB0100E010E07B010894E108F10819C04F
:100220000E945C066093E5017093E6018093E7010C
:100230009093E80184EA92E06EE071E00E94300B56
:100240000E94E3000E151F0511F00E949C000F5F35
:100250001F4F0C171D0724F3DF91CF911F910F91B2
:10026000FF90EF9008950F931F93CF93DF9309E8CA
:1002700011E0C0E0D0E08091E3019091E401C81763
:10028000D90721F4F801808161E003C0F801808181
:1002900060E00E943D0721960E5F1F4FC330D105DD
:1002A00051F7DF91CF911F910F910895E091E301F4
:1002B000F091E401EE0FFF1FE157FE4F8081918125
:1002C00064E070E00E94B70B86EC91E00E94E202CD
:1002D0000E94330108950F931F93809181010E9422
:1002E00091078C01809183010E949107A801440F1E
:1002F000551F482B592B2091E1013091E201220F2B
:10030000331F220F331F242B352B2D30310549F09D
:100310002430310531F02230310519F02B30310510
:10032000D1F4E091E301F091E401EE0FFF1FDF0152
:10033000A157BE4F8D919C911197019611969C9358
:100340008E93E556FE4F0190F081E02DE817F907F6
:1003500014F4ED93FC932E30310549F0273031052C
:1003600031F02130310519F028303105D1F4E09118
:10037000E301F091E401EE0FFF1FDF01A157BE4F33
:100380008D919C911197019711969C938E93EB56AA
:10039000FE4F0190F081E02D8E179F0714F4ED932E
:1003A000FC935093E2014093E1011F910F91089556
:1003B000809187010E949107019769F584EA92E094
:1003C00063E171E00E94300B0E94FA0084EA92E03F
:1003D00069E171E00E94300B0BC0809187010E949F
:1003E0009107BC0184EA92E04AE050E00E940E0BC3
:1003F000809187010E949107019779F384EA92E046
:100400006EE171E00E94300B60ED77E080E090E0FB
:100410000E946A0608950E945601809185010E94FB
:100420009107892BA9F48091E3019091E401019651
:1004300063E070E00E94B70B9093E4018093E301C6
:100440000E9456016AEF70E080E090E00E946A0628
:100450000895CF92DF92EF92FF920F931F93CF9365
:10046000DF9384EA92E040E855E260E070E00E94A9
:100470006E0886EC91E00E9452038EED91E065E0FB
:1004800070E00E94D2048091810160E00E94FE062B
:100490008091830160E00E94FE068091850160E00A
:1004A0000E94FE068091870160E00E94FE06809116
:1004B000810161E00E943D078091830161E00E941B
:1004C0003D07CFE8D1E045E9C42E41E0D42E3BE919
:1004D000E32E31E0F32E09E811E088819981880F3D
:1004E000991F880F991F89939993F60180819181B3
:1004F000880F991F880F991F819391936F01F701BE
:1005000080819181880F991F880F991F8193919302
:100510007F01F801808161E00E94FE060E5F1F4F9F
:10052000F1E0C539DF07C9F680E06BE671E041E034
:1005300050E00E94970581E06BE671E041E050E0F9
:100540000E949705DF91CF911F910F91FF90EF903F
:10055000DF90CF900895EF92FF920F931F93CF9368
:10056000DF938C01FC01808160E00E943D07F8016F
:10057000C681D78127967801EC0EFD1E279713C000
:10058000F801828160E00E943D07F7016081F80177
:1005900084810E943D07F801828161E00E943D074D
:1005A0000894E108F1082197D7FFEACFF80180818C
:1005B00061E00E943D07DF91CF911F910F91FF9065
:1005C000EF900895CF92DF92EF92FF920F931F93D7
:1005D000DF93CF93CDB7DEB764970FB6F894DEBF45
:1005E0000FBECDBFD82EC92E8B01DE011196E1EAD8
:1005F000F1E084E101900D928150E1F7C80164E6D9
:1006000070E00E94B70B6AE070E00E94B70BFB013C
:10061000EE0FFF1F9E012F5F3F4FE20FF31FE080A1
:10062000F180C8016AE070E00E94B70B880F991F43
:10063000280F391FF901408151812D2D3C2DC90111
:10064000DC0120E030E090E0F701E20FF31F808151
:10065000813309F491E018969C93189790E0FA0181
:10066000E20FF31F8081813309F491E050969C934F
:1006700050972F5F3F4F11962830310521F78D2D70
:100680009C2D0E94AB0264960FB6F894DEBF0FBE9D
:10069000CDBFCF91DF911F910F91FF90EF90DF9031
:1006A000CF900895CF93DF93EC018C8161E00E949D
:1006B000FE06888161E00E94FE068A8161E00E9458
:1006C000FE068E819F810796FE01E80FF91F0797AE
:1006D00002C010823197019797FFFBCFCE010E9495
:1006E000AB02DF91CF910895DF93CF93CDB7DEB703
:1006F000FC01ADB7BEB77583648333832283518316
:10070000408380E190E0978386838DB79EB74097C2
:100710000FB6F8949EBF0FBE8DBF0FB6F894BEBF44
:100720000FBEADBFCF91DF910895FC018091E9012B
:100730008C3090F480838F5F8093E901815090E04A
:10074000FC01EE0FFF1FE80FF91FE651FE4F88EB8B
:100750009BE09283818308958FEF80830895FC014D
:1007600020812C30B8F58181992787FD909548E844
:1007700050E0481B590B440F551F440F551F641779
:10078000750784F08281992787FD909548E552E0AE
:10079000481B590B440F551F440F551F641775070D
:1007A0000CF4AB0142505040CA01AA2797FDA09516
:1007B000BA2F880F991FAA1FBB1F4FB7F89430E0BC
:1007C000F901EE0FFF1FE20FF31FE651FE4F928378
:1007D00081834FBF0895AF92BF92CF92DF92EF9285
:1007E000FF920F931F93CF93DF93EC019B0182E065
:1007F000603278070CF048C077FF03C020E030E09B
:1008000005C0653B710514F024EB30E000D000D04A
:10081000B901882777FD8095982F2981332727FDF7
:100820003095E8E8AE2EB12CA21AB30AAA0CBB1C74
:10083000AA0CBB1CCC24B7FCC094DC2CEA81FF279B
:10084000E7FDF09528E532E02E1B3F0B220F331F0A
:10085000220F331F442737FD4095542FEDB7FEB7C5
:10086000218332834383548320E030E040E050E032
:1008700004EBE02EF12C012D112D0E94430B9B0166
:100880000F900F900F900F90CE01B9010E94AF030F
:10089000DF91CF911F910F91FF90EF90DF90CF905C
:1008A000BF90AF900895CF92DF92EF92FF921F9387
:1008B000CF93DF93EC01162F7A01690188818C3088
:1008C00008F064C0862F61E00E94FE06888190E0F7
:1008D000FC01EE0FFF1FE80FF91FE651FE4F1F73DB
:1008E0008081807C812B808380E292E08E199F0939
:1008F00064E070E00E94B70B698380E699E08C1990
:100900009D0964E070E00E94B70B6A83A8818A2F7A
:100910006CE00E94AB0B682F70E0AB01440F551FD9
:10092000460F571F440F551F440F551F20E030E05E
:10093000C901840F951FFC01EE0FFF1FE80FF91F7F
:10094000E651FE4F808186FD15C02F5F3F4F2C3052
:10095000310571F724C01092800082E080938100FD
:100960001092850010928400B19A80916F0082608D
:1009700080936F008A2F90E0FC01EE0FFF1FE80FBD
:10098000F91FE651FE4F8081806480838881DF916A
:10099000CF911F91FF90EF90DF90CF900895672B3C
:1009A000D1F2E8CF40E252E020E639E00E94530461
:1009B00008951F920F920FB60F9211242F933F9319
:1009C0004F935F936F937F938F939F93AF93BF9357
:1009D000EF93FF9380910E0287FF05C01092850070
:1009E000109284002BC020910E02332727FD3095F2
:1009F0008091E90190E02817390704F580910E02F3
:100A0000992787FD9095FC01EE0FFF1FE80FF91F56
:100A1000E651FE4F808186FF11C080910E0299271A
:100A200087FD9095FC01EE0FFF1FE80FF91FE651BF
:100A3000FE4F80818F7360E00E943D0780910E021F
:100A40008F5F80930E0220910E02332727FD309591
:100A50008091E90190E0281739070CF04EC0809191
:100A60000E028C300CF049C020918400309185003A
:100A700080910E02992787FD9095FC01EE0FFF1FD4
:100A8000E80FF91FE651FE4F81819281280F391F2F
:100A9000309389002093880080910E02992787FD6A
:100AA0009095FC01EE0FFF1FE80FF91FE651FE4F76
:100AB000808186FF2BC080910E02992787FD90953B
:100AC000FC01EE0FFF1FE80FF91FE651FE4F80817A
:100AD0008F7361E00E943D0719C080E49CE905C066
:100AE0008091840090918500049690938900809372
:100AF00088008FEF80930E0209C08091840090914E
:100B00008500049680549C4940F3EACFFF91EF9111
:100B1000BF91AF919F918F917F916F915F914F9115
:100B20003F912F910F900FBE0F901F90189582301C
:100B300000F5E82FF0E0EE0FFF1FE15FFD4F71833E
:100B40006083882319F08130A1F408C08091690086
:100B50008C7F842B80936900E89A089580916900C6
:100B6000440F551F440F551F837F842B80936900CA
:100B7000E99A08951F920F920FB60F9211242F93A6
:100B80003F934F935F936F937F938F939F93AF9315
:100B9000BF93EF93FF9380910F0290911002892BE6
:100BA00029F0E0910F02F09110020995FF91EF9169
:100BB000BF91AF919F918F917F916F915F914F9175
:100BC0003F912F910F900FBE0F901F9018951F927D
:100BD0000F920FB60F9211242F933F934F935F9371
:100BE0006F937F938F939F93AF93BF93EF93FF93F5
:100BF0008091110290911202892B29F0E09111024B
:100C0000F09112020995FF91EF91BF91AF919F91E1
:100C10008F917F916F915F914F913F912F910F90A5
:100C20000FBE0F901F9018951F920F920FB60F9244
:100C300011242F933F938F939F93AF93BF938091F2
:100C4000170290911802A0911902B0911A023091E6
:100C50001B020196A11DB11D232F2D5F2D3720F002
:100C60002D570196A11DB11D20931B0280931702E1
:100C700090931802A0931902B0931A028091130264
:100C800090911402A0911502B09116020196A11D37
:100C9000B11D8093130290931402A0931502B09398
:100CA0001602BF91AF919F918F913F912F910F901D
:100CB0000FBE0F901F9018958FB7F89420911702D0
:100CC000309118024091190250911A028FBFB90158
:100CD000CA0108959B01AC017FB7F894809113027B
:100CE00090911402A0911502B091160266B5A89BCE
:100CF00005C06F3F19F00196A11DB11D7FBFBA2F2E
:100D0000A92F982F8827860F911DA11DB11D62E084
:100D1000880F991FAA1FBB1F6A95D1F7BC012DC070
:100D2000FFB7F8948091130290911402A0911502DC
:100D3000B0911602E6B5A89B05C0EF3F19F00196E9
:100D4000A11DB11DFFBFBA2FA92F982F88278E0F85
:100D5000911DA11DB11DE2E0880F991FAA1FBB1FA5
:100D6000EA95D1F7861B970B885E9340C8F2215015
:100D700030404040504068517C4F211531054105BD
:100D8000510571F60895789484B5826084BD84B568
:100D9000816084BD85B5826085BD85B5816085BD76
:100DA000EEE6F0E0808181608083E1E8F0E010828F
:100DB000808182608083808181608083E0E8F0E0D0
:100DC000808181608083E1EBF0E0808184608083BA
:100DD000E0EBF0E0808181608083EAE7F0E08081F1
:100DE0008460808380818260808380818160808351
:100DF0008081806880831092C1000895CF93DF9333
:100E0000482F50E0CA0186569F4FFC0134914A5743
:100E10005F4FFA018491882369F190E0880F991F50
:100E2000FC01E859FF4FA591B491FC01EE58FF4F2A
:100E3000C591D491662351F42FB7F8948C91932FD8
:100E4000909589238C93888189230BC0623061F44B
:100E50002FB7F8948C91932F909589238C93888148
:100E6000832B88832FBF06C09FB7F8948C91832B68
:100E70008C939FBFDF91CF910895482F50E0CA0116
:100E800082559F4FFC012491CA0186569F4FFC0159
:100E900094914A575F4FFA013491332309F440C0CB
:100EA000222351F1233071F0243028F42130A1F0B5
:100EB000223011F514C02630B1F02730C1F02430B3
:100EC000D9F404C0809180008F7703C080918000A6
:100ED0008F7D8093800010C084B58F7702C084B569
:100EE0008F7D84BD09C08091B0008F7703C0809151
:100EF000B0008F7D8093B000E32FF0E0EE0FFF1F76
:100F0000EE58FF4FA591B4912FB7F894662321F4C2
:100F10008C919095892302C08C91892B8C932FBF43
:100F20000895682F70E0CB0182559F4FFC012491FA
:100F3000CB0186569F4FFC0144916A577F4FFB01BE
:100F40009491992319F420E030E03CC0222351F120
:100F5000233071F0243028F42130A1F0223011F533
:100F600014C02630B1F02730C1F02430D9F404C0C9
:100F7000809180008F7703C0809180008F7D809367
:100F8000800010C084B58F7702C084B58F7D84BD8A
:100F900009C08091B0008F7703C08091B0008F7D31
:100FA0008093B000892F90E0880F991F84589F4F3D
:100FB000FC01A591B4918C9120E030E0842311F0E4
:100FC00021E030E0C901089508951F920F920FB6F5
:100FD0000F9211242F933F934F938F939F93EF93EF
:100FE000FF938091C00082FD1DC04091C6002091FA
:100FF0005C0230915D022F5F3F4F2F733070809104
:101000005E0290915F022817390771F0E0915C024F
:10101000F0915D02E45EFD4F408330935D022093CA
:101020005C0202C08091C600FF91EF919F918F9169
:101030004F913F912F910F900FBE0F901F901895D9
:10104000E091B002F091B102E05CFF4F819191918B
:1010500020813181821B930B8F739070892B11F04B
:101060000E94E40708951F920F920FB60F92112469
:101070002F933F938F939F93EF93FF932091A00221
:101080003091A1028091A2029091A3022817390702
:1010900031F48091C1008F7D8093C10014C0E09134
:1010A000A202F091A302E05AFD4F20818091A2029A
:1010B0009091A30201968F7390709093A3028093F6
:1010C000A2022093C600FF91EF919F918F913F91D3
:1010D0002F910F900FBE0F901F901895AF92BF9257
:1010E000DF92EF92FF920F931F93CF93DF93EC0168
:1010F0007A018B01DD24403081EE580780E06807DB
:1011000080E0780711F0DD24D39491E0A92EB12C72
:10111000EC89FD89DD2069F0C50108A002C0880FB7
:10112000991F0A94E2F7808360E079E08DE390E014
:1011300005C0108260E874E88EE190E0A801970194
:101140000E94CA0B21503040404050405695479570
:101150003795279580E12030380720F0DD2011F009
:10116000DD24D6CFE889F9893083EA89FB89208399
:1011700019A2EE89FF89408121E030E0C9010C8C81
:1011800002C0880F991F0A94E2F7482B4083EE892A
:10119000FF894081C9010D8C02C0880F991F0A94F4
:1011A000E2F7482B4083EE89FF894081C9010E8C0C
:1011B00002C0880F991F0A94E2F7482B4083EE89FA
:1011C000FF8980810F8C02C0220F331F0A94E2F73F
:1011D000209528232083DF91CF911F910F91FF90BD
:1011E000EF90DF90BF90AF900895DC011C96ED91D9
:1011F000FC911D97E05CFF4F21913191808191819D
:10120000281B390B2F733070C9010895DC011C961F
:10121000ED91FC911D97E05CFF4F20813181E054FE
:10122000F040DF01AE5BBF4F8D919C911197281765
:10123000390719F42FEF3FEF07C08D919C91E80F0C
:10124000F91F8081282F30E0C9010895DC011C9628
:10125000ED91FC911D97E05CFF4F20813181E054BE
:10126000F040DF01AE5BBF4F8D919C911197281725
:10127000390719F42FEF3FEF10C08D919C91119712
:10128000E80FF91F20818D919C91119701968F7322
:10129000907011969C938E9330E0C9010895DC0103
:1012A00091968C919197882339F05496ED91FC9109
:1012B0005597808186FFF9CF91961C920895CF9320
:1012C000DF93EC01EE85FF85E05CFF4F20813181EB
:1012D000E054F0402F5F3F4F2F733070DF01AE5B63
:1012E000BF4F8D919C91119728173907D1F3E05C7E
:1012F000FF4F80819181E054F040E80FF91F608337
:10130000EE85FF85E05CFF4F31832083EE89FF8906
:10131000208181E090E00F8C02C0880F991F0A9411
:10132000E2F7282B208381E089A3EC89FD89808165
:101330008064808381E090E0DF91CF9108951092E6
:10134000A7021092A60288EE93E0A0E0B0E080939E
:10135000A8029093A902A093AA02B093AB0289EBD2
:1013600091E09093A5028093A4028CE192E0909387
:10137000B1028093B00280E692E09093B302809332
:10138000B20285EC90E09093B5028093B40284ECB5
:1013900090E09093B7028093B60280EC90E0909337
:1013A000B9028093B80281EC90E09093BB028093E5
:1013B000BA0282EC90E09093BD028093BC0286EC6E
:1013C00090E09093BF028093BE0284E08093C002BD
:1013D00083E08093C10287E08093C20285E080931E
:1013E000C30281E08093C4020895CF93DF930E94EB
:1013F000C3060E942902C0E2D8E00E94D8012097CB
:10140000E1F30E942008F9CFCF92DF92EF92FF9292
:101410000F931F93CF93DF937C016B018A01C0E090
:10142000D0E00FC0D6016D916D01D701ED91FC9117
:101430000190F081E02DC7010995C80FD91F015017
:1014400010400115110571F7CE01DF91CF911F9169
:101450000F91FF90EF90DF90CF900895EF92FF9261
:101460000F931F938C01DC01ED91FC910190F081B1
:10147000E02D6DE009957C01D801ED91FC91019082
:10148000F081E02DC8016AE009959C012E0D3F1DF9
:10149000C9011F910F91FF90EF900895CF93DF93B3
:1014A000EC016115710519F420E030E00FC0DB019B
:1014B0000D900020E9F71197A61BB70BE881F98181
:1014C0000280F381E02DAD0109959C01C901DF91F6
:1014D000CF9108954F925F927F928F929F92AF9299
:1014E000BF92CF92DF92EF92FF920F931F93DF9301
:1014F000CF93CDB7DEB7A1970FB6F894DEBF0FBE7E
:10150000CDBF2C01742ECB01223008F42AE019A2A1
:1015100031E2C32ED12CCC0EDD1E822E9924AA24BA
:10152000BB24672D752FA50194010E94CA0B790178
:101530008A01C801B701A50194010E948C0B472DB7
:10154000461B0894C108D1084A3014F4405D01C01C
:10155000495CF6014083E114F1040105110521F015
:101560007E2C5F2DC801DDCFC201B6010E944E0A5C
:10157000A1960FB6F894DEBF0FBECDBFCF91DF911D
:101580001F910F91FF90EF90DF90CF90BF90AF90A1
:101590009F908F907F905F904F900895CF92DF92B1
:1015A000EF92FF920F931F93CF93DF93EC016A01A9
:1015B0007B012115310541F4E881F9810190F08129
:1015C000E02D642F09951FC02A303105D1F477FF33
:1015D00017C0E881F9810190F081E02D6DE2099555
:1015E0008C0144275527BA014C195D096E097F0902
:1015F000CE012AE00E946A0A9801280F391F04C010
:101600002AE00E946A0A9C01C901DF91CF911F91D3
:101610000F91FF90EF90DF90CF900895CF92DF92DF
:10162000EF92FF920F931F936C017B019A010027A9
:10163000F7FC0095102FB801A7010E94CE0A8C017B
:10164000C6010E942E0A080F191FC8011F910F9191
:10165000FF90EF90DF90CF9008950E944E0A08957A
:10166000EF92FF920F931F937C010E944E0A8C0110
:10167000C7010E942E0A080F191FC8011F910F9160
:10168000FF90EF9008952F923F924F925F926F924A
:101690007F928F929F92AF92BF92CF92DF92EF9202
:1016A000FF920F931F93DF93CF93CDB7DEB73B012C
:1016B0004C0119012A016D897E898F89988D6A19DB
:1016C0007B098C099D09621A730A840A950AA40190
:1016D00093010E948C0BE218F30804091509A80174
:1016E00097010E94EC0B2A0D3B1D4C1D5D1DB9019D
:1016F000CA01CF91DF911F910F91FF90EF90DF9082
:10170000CF90BF90AF909F908F907F906F905F90A1
:101710004F903F902F900895629FD001739FF001EA
:10172000829FE00DF11D649FE00DF11D929FF00D71
:10173000839FF00D749FF00D659FF00D9927729FA8
:10174000B00DE11DF91F639FB00DE11DF91FBD0133
:10175000CF0111240895991B79E004C0991F9617B1
:1017600008F0961B881F7A95C9F78095089597FB16
:10177000092E07260AD077FD04D049D006D00020D4
:101780001AF4709561957F4F0895F6F790958195BD
:101790009F4F0895A1E21A2EAA1BBB1BFD010DC08D
:1017A000AA1FBB1FEE1FFF1FA217B307E407F50711
:1017B00020F0A21BB30BE40BF50B661F771F881FED
:1017C000991F1A9469F760957095809590959B0183
:1017D000AC01BD01CF01089597FB092E05260ED05F
:1017E00057FD04D0D7DF0AD0001C38F4509540953F
:1017F000309521953F4F4F4F5F4F0895F6F79095E5
:101800008095709561957F4F8F4F9F4F0895AA1BCC
:10181000BB1B51E107C0AA1FBB1FA617B70710F0DB
:10182000A61BB70B881F991F5A95A9F7809590950D
:10183000BC01CD010895EE0FFF1F0590F491E02D3E
:061840000994F894FFCFAB
:1018460077616974696E6720666F723A20007374F7
:10185600657000626567696E00646F6E6500636F30
:101866006E74696E75650031313131313130300059
:10187600303131303030303000313130313130318B
:1018860030003131313130303130003031313030AB
:101896003131300031303131303131300031303199
:1018A600313131313000313131303030303000318A
:1018B6003131313131313000313131303031313047
:1018C6000002000300060007000B000C000D0001DB
:1018D600000100000001000100010063000A00632E
:1018E6000027013001390142014B0154015D0166B7
:1018F600016F017801000000005F09040AF508265F
:061906000906094F09006B
:00000001FF
