:100000000C9463000C94AC020C94D9020C948B00F9
:100010000C948B000C948B000C948B000C948B0034
:100020000C948B000C948B000C948B000C948B0024
:100030000C948B000C948B000C948B000C948B0014
:100040000C9406030C948B000C94C9040C941705B3
:100050000C948B000C948B000C948B000C948B00F4
:100060000C948B000C948B000000000024002700EF
:100070002A0000000000250028002B0000000000DE
:1000800023002600290004040404040404040202DA
:100090000202020203030303030301020408102007
:1000A0004080010204081020010204081020000012
:1000B0000007000201000003040600000000000029
:1000C00000008D00830611241FBECFEFD8E0DEBFF5
:1000D000CDBF11E0A0E0B1E0E6ECFEE002C005908B
:1000E0000D92A639B107D9F712E0A6E9B1E001C037
:1000F0001D92A936B107E1F710E0C6ECD0E004C0CC
:100100002297FE010E945D07C23CD107C9F70E94F9
:10011000D9060C9461070C94000086E991E068E030
:1001200070E049E050E02AE030E00E946802089563
:100130000F931F9380915A010E9475048C01809146
:100140005C010E947504A801440F551F482B592BD0
:100150002091AE013091AF01220F331F220F331FC8
:10016000242B352B2D30310549F02430310531F069
:100170002230310519F02B303105D1F4E091B00176
:10018000F091B101EE0FFF1FDF01A05ABE4F8D911C
:100190009C911197019611969C938E93E459FE4F72
:1001A0000190F081E02DE817F90714F4ED93FC932A
:1001B0002E30310549F02730310531F0213031053D
:1001C00019F028303105D1F4E091B001F091B1017E
:1001D000EE0FFF1FDF01A05ABE4F8D919C9111972A
:1001E000019711969C938E93EA59FE4F0190F081EE
:1001F000E02D8E179F0714F4ED93FC935093AF01FD
:100200004093AE011F910F91089580915E010E946D
:1002100075048130910599F4E091B001F091B1013C
:10022000EE0FFF1FE05AFE4F8081918164E070E085
:100230000E94120786E991E00E94D6010895892B59
:1002400011F58091B0019091B101019663E070E0E9
:100250000E941207FC019093B1018093B001EE0F50
:10026000FF1FE05AFE4F8081918164E070E00E94A0
:10027000120786E991E00E94D60164EF71E080E008
:1002800090E00E944E030895CF93DF9387E492E0BD
:1002900040E855E260E070E00E94520586E991E096
:1002A0000E94460280915A0160E00E94E203809120
:1002B0005C0160E00E94E20380915E0160E00E94C8
:1002C000E20380915A0161E00E94210480915C0167
:1002D00061E00E942104E0E6F1E0C6E6D1E0ACE690
:1002E000B1E080819181880F991F880F991F8193B8
:1002F000919388819981880F991F880F991F8993FD
:1003000099938D919C911197880F991F880F991F30
:100310008D939D9381E0E636F80719F780E068E950
:1003200070E041E050E00E94890281E068E970E0FD
:1003300041E050E00E948902DF91CF910895EF9251
:10034000FF920F931F93CF93DF938C01FC01808169
:1003500060E00E942104F801C681D78127967801C8
:10036000EC0EFD1E279713C0F801828160E00E9409
:100370002104F7016081F80184810E942104F801C1
:10038000828161E00E9421040894E108F10821972C
:10039000D7FFEACFF801808161E00E942104DF915C
:1003A000CF911F910F91FF90EF900895CF92DF9220
:1003B000EF92FF920F931F93DF93CF93CDB7DEB7EA
:1003C00064970FB6F894DEBF0FBECDBFD82EC92EEE
:1003D0008B01DE011196E2E7F1E084E101900D92DC
:1003E0008150E1F7C80164E670E00E9412076AE0FC
:1003F00070E00E941207FB01EE0FFF1F9E012F5FAE
:100400003F4FE20FF31FE080F180C8016AE070E027
:100410000E941207880F991F280F391FF901408188
:1004200051812D2D3C2DC901DC0120E030E090E010
:10043000F701E20FF31F8081813309F491E01896F0
:100440009C93189790E0FA01E20FF31F80818133AB
:1004500009F491E050969C9350972F5F3F4F11966F
:100460002830310521F78D2D9C2D0E949F01649627
:100470000FB6F894DEBF0FBECDBFCF91DF911F91B5
:100480000F91FF90EF90DF90CF900895CF93DF937F
:10049000EC018C8161E00E94E203888161E00E94AE
:1004A000E2038A8161E00E94E2038E819F810796C8
:1004B000FE01E80FF91F079702C0108231970197DC
:1004C00097FFFBCFCE010E949F01DF91CF9108954E
:1004D000DF93CF93CDB7DEB7FC01ADB7BEB7758361
:1004E0006483338322835183408380E190E0978348
:1004F00086838DB79EB740970FB6F8949EBF0FBE08
:100500008DBF0FB6F894BEBF0FBEADBFCF91DF91C8
:100510000895823000F5E82FF0E0EE0FFF1FEE5453
:10052000FE4F71836083882319F08130A1F408C0E5
:10053000809169008C7F842B80936900E89A0895EC
:1005400080916900440F551F440F551F837F842BF2
:1005500080936900E99A08951F920F920FB60F9247
:1005600011242F933F934F935F936F937F938F93B8
:100570009F93AF93BF93EF93FF938091B2019091BC
:10058000B301892B29F0E091B201F091B3010995F3
:10059000FF91EF91BF91AF919F918F917F916F915B
:1005A0005F914F913F912F910F900FBE0F901F9031
:1005B00018951F920F920FB60F9211242F933F930D
:1005C0004F935F936F937F938F939F93AF93BF935B
:1005D000EF93FF938091B4019091B501892B29F09D
:1005E000E091B401F091B5010995FF91EF91BF91B0
:1005F000AF919F918F917F916F915F914F913F91BB
:100600002F910F900FBE0F901F9018951F920F9271
:100610000FB60F9211242F933F938F939F93AF9315
:10062000BF938091BA019091BB01A091BC01B091A0
:10063000BD013091BE010196A11DB11D232F2D5F7B
:100640002D3720F02D570196A11DB11D2093BE011D
:100650008093BA019093BB01A093BC01B093BD01FC
:100660008091B6019091B701A091B801B091B90104
:100670000196A11DB11D8093B6019093B701A0937F
:10068000B801B093B901BF91AF919F918F913F9104
:100690002F910F900FBE0F901F9018959B01AC01EA
:1006A0007FB7F8948091B6019091B701A091B801FD
:1006B000B091B90166B5A89B05C06F3F19F00196CE
:1006C000A11DB11D7FBFBA2FA92F982F8827860F94
:1006D000911DA11DB11D62E0880F991FAA1FBB1FAC
:1006E0006A95D1F7BC012DC0FFB7F8948091B6018F
:1006F0009091B701A091B801B091B901E6B5A89B5E
:1007000005C0EF3F19F00196A11DB11DFFBFBA2F23
:10071000A92F982F88278E0F911DA11DB11DE2E0F2
:10072000880F991FAA1FBB1FEA95D1F7861B970B4D
:10073000885E9340C8F2215030404040504068519C
:100740007C4F211531054105510571F608957894C6
:1007500084B5826084BD84B5816084BD85B58260C6
:1007600085BD85B5816085BDEEE6F0E08081816064
:100770008083E1E8F0E01082808182608083808164
:1007800081608083E0E8F0E0808181608083E1EB3C
:10079000F0E0808184608083E0EBF0E08081816024
:1007A0008083EAE7F0E080818460808380818260DA
:1007B00080838081816080838081806880831092C3
:1007C000C1000895CF93DF93482F50E0CA018656A9
:1007D0009F4FFC0134914A575F4FFA01849188235F
:1007E00069F190E0880F991FFC01E859FF4FA5912E
:1007F000B491FC01EE58FF4FC591D491662351F49A
:100800002FB7F8948C91932F909589238C9388819E
:1008100089230BC0623061F42FB7F8948C91932F29
:10082000909589238C938881832B88832FBF06C062
:100830009FB7F8948C91832B8C939FBFDF91CF91BE
:100840000895482F50E0CA0182559F4FFC01249122
:10085000CA0186569F4FFC0194914A575F4FFA0197
:100860003491332309F440C0222351F1233071F035
:10087000243028F42130A1F0223011F514C02630A4
:10088000B1F02730C1F02430D9F404C08091800049
:100890008F7703C0809180008F7D8093800010C08F
:1008A00084B58F7702C084B58F7D84BD09C08091E7
:1008B000B0008F7703C08091B0008F7D8093B0002F
:1008C000E32FF0E0EE0FFF1FEE58FF4FA591B4911C
:1008D0002FB7F894662321F48C919095892302C058
:1008E0008C91892B8C932FBF0895682F70E0CB01DA
:1008F00082559F4FFC012491CB0186569F4FFC01EE
:1009000044916A577F4FFB019491992319F420E099
:1009100030E03CC0222351F1233071F0243028F420
:100920002130A1F0223011F514C02630B1F027306B
:10093000C1F02430D9F404C0809180008F7703C0C7
:10094000809180008F7D8093800010C084B58F7768
:1009500002C084B58F7D84BD09C08091B0008F77BF
:1009600003C08091B0008F7D8093B000892F90E00C
:10097000880F991F84589F4FFC01A591B4918C91C9
:1009800020E030E0842311F021E030E0C901089537
:1009900008951F920F920FB60F9211242F933F9339
:1009A0004F938F939F93EF93FF938091C00082FDAD
:1009B0001DC04091C6002091FF01309100022F5FC1
:1009C0003F4F2F73307080910102909102022817DF
:1009D000390771F0E091FF01F0910002E154FE4F00
:1009E0004083309300022093FF0102C08091C60033
:1009F000FF91EF919F918F914F913F912F910F9088
:100A00000FBE0F901F901895E0915302F091540281
:100A1000E05CFF4F8191919120813181821B930B8A
:100A20008F739070892B11F00E94C80408951F9253
:100A30000F920FB60F9211242F933F938F939F9392
:100A4000EF93FF932091430230914402809145023D
:100A5000909146022817390731F48091C1008F7DAB
:100A60008093C10014C0E0914502F0914602ED5F11
:100A7000FD4F2081809145029091460201968F732F
:100A8000907090934602809345022093C600FF9198
:100A9000EF919F918F913F912F910F900FBE0F90EB
:100AA0001F901895AF92BF92DF92EF92FF920F9333
:100AB0001F93CF93DF93EC017A018B01DD2440304B
:100AC00081EE580780E0680780E0780711F0DD24A8
:100AD000D39491E0A92EB12CEC89FD89DD2069F039
:100AE000C50108A002C0880F991F0A94E2F780830D
:100AF00060E079E08DE390E005C0108260E874E882
:100B00008EE190E0A80197010E9425072150304016
:100B100040405040569547953795279580E12030C5
:100B2000380720F0DD2011F0DD24D6CFE889F989DF
:100B30003083EA89FB89208319A2EE89FF894081ED
:100B400021E030E0C9010C8C02C0880F991F0A9483
:100B5000E2F7482B4083EE89FF894081C9010D8C63
:100B600002C0880F991F0A94E2F7482B4083EE8950
:100B7000FF894081C9010E8C02C0880F991F0A9419
:100B8000E2F7482B4083EE89FF8980810F8C02C0F9
:100B9000220F331F0A94E2F7209528232083DF9148
:100BA000CF911F910F91FF90EF90DF90BF90AF908A
:100BB0000895DC011C96ED91FC911D97E05CFF4FC0
:100BC0002191319180819181281B390B2F733070D5
:100BD000C9010895DC011C96ED91FC911D97E05C24
:100BE000FF4F20813181E054F040DF01AE5BBF4F09
:100BF0008D919C9111972817390719F42FEF3FEF2A
:100C000007C08D919C91E80FF91F8081282F30E05B
:100C1000C9010895DC011C96ED91FC911D97E05CE3
:100C2000FF4F20813181E054F040DF01AE5BBF4FC8
:100C30008D919C9111972817390719F42FEF3FEFE9
:100C400010C08D919C911197E80FF91F20818D9113
:100C50009C91119701968F73907011969C938E932F
:100C600030E0C9010895DC0191968C919197882319
:100C700039F05496ED91FC915597808186FFF9CF1C
:100C800091961C920895CF93DF93EC01EE85FF853A
:100C9000E05CFF4F20813181E054F0402F5F3F4FF7
:100CA0002F733070DF01AE5BBF4F8D919C91119718
:100CB00028173907D1F3E05CFF4F80819181E05420
:100CC000F040E80FF91F6083EE85FF85E05CFF4F81
:100CD00031832083EE89FF89208181E090E00F8CB1
:100CE00002C0880F991F0A94E2F7282B208381E025
:100CF00089A3EC89FD8980818064808381E090E014
:100D0000DF91CF91089510924A021092490288EE25
:100D100093E0A0E0B0E080934B0290934C02A0934C
:100D20004D02B0934E028AE891E09093480280937E
:100D300047028FEB91E0909354028093530283E03B
:100D400092E0909356028093550285EC90E0909348
:100D500058028093570284EC90E090935A0280935B
:100D6000590280EC90E090935C0280935B0281ECEE
:100D700090E090935E0280935D0282EC90E090930D
:100D8000600280935F0286EC90E090936202809311
:100D9000610284E08093630283E08093640287E0D1
:100DA0008093650285E08093660281E0809367020C
:100DB0000895CF93DF930E94A7030E944401C4E0EB
:100DC000D5E00E9405012097E1F30E940405F9CFC8
:100DD000CF92DF92EF92FF920F931F93CF93DF9307
:100DE0007C016B018A01C0E0D0E00FC0D6016D919B
:100DF0006D01D701ED91FC910190F081E02DC701CB
:100E00000995C80FD91F015010400115110571F740
:100E1000CE01DF91CF911F910F91FF90EF90DF9066
:100E2000CF90089597FB092E07260AD077FD04D0AE
:100E30002ED006D000201AF4709561957F4F08954A
:100E4000F6F7909581959F4F0895A1E21A2EAA1B5F
:100E5000BB1BFD010DC0AA1FBB1FEE1FFF1FA2176A
:100E6000B307E407F50720F0A21BB30BE40BF50B67
:100E7000661F771F881F991F1A9469F760957095F0
:100E8000809590959B01AC01BD01CF010895AA1BEF
:100E9000BB1B51E107C0AA1FBB1FA617B70710F065
:100EA000A61BB70B881F991F5A95A9F78095909597
:100EB000BC01CD010895EE0FFF1F0590F491E02DC8
:060EC0000994F894FFCF35
:100EC6003131313131313030003031313030303044
:100ED6003000313130313130313000313131313063
:100EE6003031300030313130303131300031303155
:100EF6003130313130003130313131313130003142
:100F06003131303030303000313131313131313002
:100F1600003131313030313130000200030007003A
:100F26000100020003000100020003000B0016008E
:100F360063000001090112011B0124012D01360184
:100F46003F0148015101000000004306E806D905AB
:060F56000A06EA0533065D
:00000001FF
